{"contracts/TransferGSN.sol":{"TokenTransfer":{"abi":[{"inputs":[],"stateMutability":"nonpayable","type":"constructor"},{"inputs":[],"name":"getTrustedForwarder","outputs":[{"internalType":"address","name":"forwarder","type":"address"}],"stateMutability":"view","type":"function"},{"inputs":[{"internalType":"address","name":"forwarder","type":"address"}],"name":"isTrustedForwarder","outputs":[{"internalType":"bool","name":"","type":"bool"}],"stateMutability":"view","type":"function"},{"inputs":[],"name":"tokenAddress","outputs":[{"internalType":"address","name":"","type":"address"}],"stateMutability":"view","type":"function"},{"inputs":[{"internalType":"address","name":"_to","type":"address"},{"internalType":"uint256","name":"_amount","type":"uint256"}],"name":"transferTokens","outputs":[],"stateMutability":"nonpayable","type":"function"}],"evm":{"bytecode":{"linkReferences":{},"object":"608060405234801561001057600080fd5b50732f3a40a3db8a7e3d09b0adfefbce4f6f81927557600160006101000a81548173ffffffffffffffffffffffffffffffffffffffff021916908373ffffffffffffffffffffffffffffffffffffffff160217905550610560806100756000396000f3fe608060405234801561001057600080fd5b506004361061004c5760003560e01c8063572b6c05146100515780639d76ea5814610081578063bec3fa171461009f578063ce1b815f146100bb575b600080fd5b61006b600480360381019061006691906102f8565b6100d9565b6040516100789190610428565b60405180910390f35b610089610132565b60405161009691906103d6565b60405180910390f35b6100b960048036038101906100b49190610321565b610158565b005b6100c3610259565b6040516100d091906103d6565b60405180910390f35b60008060009054906101000a900473ffffffffffffffffffffffffffffffffffffffff1673ffffffffffffffffffffffffffffffffffffffff168273ffffffffffffffffffffffffffffffffffffffff16149050919050565b600160009054906101000a900473ffffffffffffffffffffffffffffffffffffffff1681565b6000600160009054906101000a900473ffffffffffffffffffffffffffffffffffffffff1690508073ffffffffffffffffffffffffffffffffffffffff166323b872dd6101a3610282565b85856040518463ffffffff1660e01b81526004016101c3939291906103f1565b602060405180830381600087803b1580156101dd57600080fd5b505af11580156101f1573d6000803e3d6000fd5b505050506040513d601f19601f82011682018060405250810190610215919061035d565b610254576040517f08c379a000000000000000000000000000000000000000000000000000000000815260040161024b90610443565b60405180910390fd5b505050565b60008060009054906101000a900473ffffffffffffffffffffffffffffffffffffffff16905090565b6000601460003690501015801561029e575061029d336100d9565b5b156102b257601436033560601c90506102b6565b3390505b90565b6000813590506102c8816104e5565b92915050565b6000815190506102dd816104fc565b92915050565b6000813590506102f281610513565b92915050565b60006020828403121561030a57600080fd5b6000610318848285016102b9565b91505092915050565b6000806040838503121561033457600080fd5b6000610342858286016102b9565b9250506020610353858286016102e3565b9150509250929050565b60006020828403121561036f57600080fd5b600061037d848285016102ce565b91505092915050565b61038f81610474565b82525050565b61039e81610486565b82525050565b60006103b1600f83610463565b91506103bc826104bc565b602082019050919050565b6103d0816104b2565b82525050565b60006020820190506103eb6000830184610386565b92915050565b60006060820190506104066000830186610386565b6104136020830185610386565b61042060408301846103c7565b949350505050565b600060208201905061043d6000830184610395565b92915050565b6000602082019050818103600083015261045c816103a4565b9050919050565b600082825260208201905092915050565b600061047f82610492565b9050919050565b60008115159050919050565b600073ffffffffffffffffffffffffffffffffffffffff82169050919050565b6000819050919050565b7f5472616e73666572206661696c65640000000000000000000000000000000000600082015250565b6104ee81610474565b81146104f957600080fd5b50565b61050581610486565b811461051057600080fd5b50565b61051c816104b2565b811461052757600080fd5b5056fea2646970667358221220624d0d34bd670ffc202d3b1718a705c3ba35254a61dfd350d852345741c785ce64736f6c63430008010033","opcodes":"PUSH1 0x80 PUSH1 0x40 MSTORE CALLVALUE DUP1 ISZERO PUSH2 0x10 JUMPI PUSH1 0x0 DUP1 REVERT JUMPDEST POP PUSH20 0x2F3A40A3DB8A7E3D09B0ADFEFBCE4F6F81927557 PUSH1 0x1 PUSH1 0x0 PUSH2 0x100 EXP DUP2 SLOAD DUP2 PUSH20 0xFFFFFFFFFFFFFFFFFFFFFFFFFFFFFFFFFFFFFFFF MUL NOT AND SWAP1 DUP4 PUSH20 0xFFFFFFFFFFFFFFFFFFFFFFFFFFFFFFFFFFFFFFFF AND MUL OR SWAP1 SSTORE POP PUSH2 0x560 DUP1 PUSH2 0x75 PUSH1 0x0 CODECOPY PUSH1 0x0 RETURN INVALID PUSH1 0x80 PUSH1 0x40 MSTORE CALLVALUE DUP1 ISZERO PUSH2 0x10 JUMPI PUSH1 0x0 DUP1 REVERT JUMPDEST POP PUSH1 0x4 CALLDATASIZE LT PUSH2 0x4C JUMPI PUSH1 0x0 CALLDATALOAD PUSH1 0xE0 SHR DUP1 PUSH4 0x572B6C05 EQ PUSH2 0x51 JUMPI DUP1 PUSH4 0x9D76EA58 EQ PUSH2 0x81 JUMPI DUP1 PUSH4 0xBEC3FA17 EQ PUSH2 0x9F JUMPI DUP1 PUSH4 0xCE1B815F EQ PUSH2 0xBB JUMPI JUMPDEST PUSH1 0x0 DUP1 REVERT JUMPDEST PUSH2 0x6B PUSH1 0x4 DUP1 CALLDATASIZE SUB DUP2 ADD SWAP1 PUSH2 0x66 SWAP2 SWAP1 PUSH2 0x2F8 JUMP JUMPDEST PUSH2 0xD9 JUMP JUMPDEST PUSH1 0x40 MLOAD PUSH2 0x78 SWAP2 SWAP1 PUSH2 0x428 JUMP JUMPDEST PUSH1 0x40 MLOAD DUP1 SWAP2 SUB SWAP1 RETURN JUMPDEST PUSH2 0x89 PUSH2 0x132 JUMP JUMPDEST PUSH1 0x40 MLOAD PUSH2 0x96 SWAP2 SWAP1 PUSH2 0x3D6 JUMP JUMPDEST PUSH1 0x40 MLOAD DUP1 SWAP2 SUB SWAP1 RETURN JUMPDEST PUSH2 0xB9 PUSH1 0x4 DUP1 CALLDATASIZE SUB DUP2 ADD SWAP1 PUSH2 0xB4 SWAP2 SWAP1 PUSH2 0x321 JUMP JUMPDEST PUSH2 0x158 JUMP JUMPDEST STOP JUMPDEST PUSH2 0xC3 PUSH2 0x259 JUMP JUMPDEST PUSH1 0x40 MLOAD PUSH2 0xD0 SWAP2 SWAP1 PUSH2 0x3D6 JUMP JUMPDEST PUSH1 0x40 MLOAD DUP1 SWAP2 SUB SWAP1 RETURN JUMPDEST PUSH1 0x0 DUP1 PUSH1 0x0 SWAP1 SLOAD SWAP1 PUSH2 0x100 EXP SWAP1 DIV PUSH20 0xFFFFFFFFFFFFFFFFFFFFFFFFFFFFFFFFFFFFFFFF AND PUSH20 0xFFFFFFFFFFFFFFFFFFFFFFFFFFFFFFFFFFFFFFFF AND DUP3 PUSH20 0xFFFFFFFFFFFFFFFFFFFFFFFFFFFFFFFFFFFFFFFF AND EQ SWAP1 POP SWAP2 SWAP1 POP JUMP JUMPDEST PUSH1 0x1 PUSH1 0x0 SWAP1 SLOAD SWAP1 PUSH2 0x100 EXP SWAP1 DIV PUSH20 0xFFFFFFFFFFFFFFFFFFFFFFFFFFFFFFFFFFFFFFFF AND DUP2 JUMP JUMPDEST PUSH1 0x0 PUSH1 0x1 PUSH1 0x0 SWAP1 SLOAD SWAP1 PUSH2 0x100 EXP SWAP1 DIV PUSH20 0xFFFFFFFFFFFFFFFFFFFFFFFFFFFFFFFFFFFFFFFF AND SWAP1 POP DUP1 PUSH20 0xFFFFFFFFFFFFFFFFFFFFFFFFFFFFFFFFFFFFFFFF AND PUSH4 0x23B872DD PUSH2 0x1A3 PUSH2 0x282 JUMP JUMPDEST DUP6 DUP6 PUSH1 0x40 MLOAD DUP5 PUSH4 0xFFFFFFFF AND PUSH1 0xE0 SHL DUP2 MSTORE PUSH1 0x4 ADD PUSH2 0x1C3 SWAP4 SWAP3 SWAP2 SWAP1 PUSH2 0x3F1 JUMP JUMPDEST PUSH1 0x20 PUSH1 0x40 MLOAD DUP1 DUP4 SUB DUP2 PUSH1 0x0 DUP8 DUP1 EXTCODESIZE ISZERO DUP1 ISZERO PUSH2 0x1DD JUMPI PUSH1 0x0 DUP1 REVERT JUMPDEST POP GAS CALL ISZERO DUP1 ISZERO PUSH2 0x1F1 JUMPI RETURNDATASIZE PUSH1 0x0 DUP1 RETURNDATACOPY RETURNDATASIZE PUSH1 0x0 REVERT JUMPDEST POP POP POP POP PUSH1 0x40 MLOAD RETURNDATASIZE PUSH1 0x1F NOT PUSH1 0x1F DUP3 ADD AND DUP3 ADD DUP1 PUSH1 0x40 MSTORE POP DUP2 ADD SWAP1 PUSH2 0x215 SWAP2 SWAP1 PUSH2 0x35D JUMP JUMPDEST PUSH2 0x254 JUMPI PUSH1 0x40 MLOAD PUSH32 0x8C379A000000000000000000000000000000000000000000000000000000000 DUP2 MSTORE PUSH1 0x4 ADD PUSH2 0x24B SWAP1 PUSH2 0x443 JUMP JUMPDEST PUSH1 0x40 MLOAD DUP1 SWAP2 SUB SWAP1 REVERT JUMPDEST POP POP POP JUMP JUMPDEST PUSH1 0x0 DUP1 PUSH1 0x0 SWAP1 SLOAD SWAP1 PUSH2 0x100 EXP SWAP1 DIV PUSH20 0xFFFFFFFFFFFFFFFFFFFFFFFFFFFFFFFFFFFFFFFF AND SWAP1 POP SWAP1 JUMP JUMPDEST PUSH1 0x0 PUSH1 0x14 PUSH1 0x0 CALLDATASIZE SWAP1 POP LT ISZERO DUP1 ISZERO PUSH2 0x29E JUMPI POP PUSH2 0x29D CALLER PUSH2 0xD9 JUMP JUMPDEST JUMPDEST ISZERO PUSH2 0x2B2 JUMPI PUSH1 0x14 CALLDATASIZE SUB CALLDATALOAD PUSH1 0x60 SHR SWAP1 POP PUSH2 0x2B6 JUMP JUMPDEST CALLER SWAP1 POP JUMPDEST SWAP1 JUMP JUMPDEST PUSH1 0x0 DUP2 CALLDATALOAD SWAP1 POP PUSH2 0x2C8 DUP2 PUSH2 0x4E5 JUMP JUMPDEST SWAP3 SWAP2 POP POP JUMP JUMPDEST PUSH1 0x0 DUP2 MLOAD SWAP1 POP PUSH2 0x2DD DUP2 PUSH2 0x4FC JUMP JUMPDEST SWAP3 SWAP2 POP POP JUMP JUMPDEST PUSH1 0x0 DUP2 CALLDATALOAD SWAP1 POP PUSH2 0x2F2 DUP2 PUSH2 0x513 JUMP JUMPDEST SWAP3 SWAP2 POP POP JUMP JUMPDEST PUSH1 0x0 PUSH1 0x20 DUP3 DUP5 SUB SLT ISZERO PUSH2 0x30A JUMPI PUSH1 0x0 DUP1 REVERT JUMPDEST PUSH1 0x0 PUSH2 0x318 DUP5 DUP3 DUP6 ADD PUSH2 0x2B9 JUMP JUMPDEST SWAP2 POP POP SWAP3 SWAP2 POP POP JUMP JUMPDEST PUSH1 0x0 DUP1 PUSH1 0x40 DUP4 DUP6 SUB SLT ISZERO PUSH2 0x334 JUMPI PUSH1 0x0 DUP1 REVERT JUMPDEST PUSH1 0x0 PUSH2 0x342 DUP6 DUP3 DUP7 ADD PUSH2 0x2B9 JUMP JUMPDEST SWAP3 POP POP PUSH1 0x20 PUSH2 0x353 DUP6 DUP3 DUP7 ADD PUSH2 0x2E3 JUMP JUMPDEST SWAP2 POP POP SWAP3 POP SWAP3 SWAP1 POP JUMP JUMPDEST PUSH1 0x0 PUSH1 0x20 DUP3 DUP5 SUB SLT ISZERO PUSH2 0x36F JUMPI PUSH1 0x0 DUP1 REVERT JUMPDEST PUSH1 0x0 PUSH2 0x37D DUP5 DUP3 DUP6 ADD PUSH2 0x2CE JUMP JUMPDEST SWAP2 POP POP SWAP3 SWAP2 POP POP JUMP JUMPDEST PUSH2 0x38F DUP2 PUSH2 0x474 JUMP JUMPDEST DUP3 MSTORE POP POP JUMP JUMPDEST PUSH2 0x39E DUP2 PUSH2 0x486 JUMP JUMPDEST DUP3 MSTORE POP POP JUMP JUMPDEST PUSH1 0x0 PUSH2 0x3B1 PUSH1 0xF DUP4 PUSH2 0x463 JUMP JUMPDEST SWAP2 POP PUSH2 0x3BC DUP3 PUSH2 0x4BC JUMP JUMPDEST PUSH1 0x20 DUP3 ADD SWAP1 POP SWAP2 SWAP1 POP JUMP JUMPDEST PUSH2 0x3D0 DUP2 PUSH2 0x4B2 JUMP JUMPDEST DUP3 MSTORE POP POP JUMP JUMPDEST PUSH1 0x0 PUSH1 0x20 DUP3 ADD SWAP1 POP PUSH2 0x3EB PUSH1 0x0 DUP4 ADD DUP5 PUSH2 0x386 JUMP JUMPDEST SWAP3 SWAP2 POP POP JUMP JUMPDEST PUSH1 0x0 PUSH1 0x60 DUP3 ADD SWAP1 POP PUSH2 0x406 PUSH1 0x0 DUP4 ADD DUP7 PUSH2 0x386 JUMP JUMPDEST PUSH2 0x413 PUSH1 0x20 DUP4 ADD DUP6 PUSH2 0x386 JUMP JUMPDEST PUSH2 0x420 PUSH1 0x40 DUP4 ADD DUP5 PUSH2 0x3C7 JUMP JUMPDEST SWAP5 SWAP4 POP POP POP POP JUMP JUMPDEST PUSH1 0x0 PUSH1 0x20 DUP3 ADD SWAP1 POP PUSH2 0x43D PUSH1 0x0 DUP4 ADD DUP5 PUSH2 0x395 JUMP JUMPDEST SWAP3 SWAP2 POP POP JUMP JUMPDEST PUSH1 0x0 PUSH1 0x20 DUP3 ADD SWAP1 POP DUP2 DUP2 SUB PUSH1 0x0 DUP4 ADD MSTORE PUSH2 0x45C DUP2 PUSH2 0x3A4 JUMP JUMPDEST SWAP1 POP SWAP2 SWAP1 POP JUMP JUMPDEST PUSH1 0x0 DUP3 DUP3 MSTORE PUSH1 0x20 DUP3 ADD SWAP1 POP SWAP3 SWAP2 POP POP JUMP JUMPDEST PUSH1 0x0 PUSH2 0x47F DUP3 PUSH2 0x492 JUMP JUMPDEST SWAP1 POP SWAP2 SWAP1 POP JUMP JUMPDEST PUSH1 0x0 DUP2 ISZERO ISZERO SWAP1 POP SWAP2 SWAP1 POP JUMP JUMPDEST PUSH1 0x0 PUSH20 0xFFFFFFFFFFFFFFFFFFFFFFFFFFFFFFFFFFFFFFFF DUP3 AND SWAP1 POP SWAP2 SWAP1 POP JUMP JUMPDEST PUSH1 0x0 DUP2 SWAP1 POP SWAP2 SWAP1 POP JUMP JUMPDEST PUSH32 0x5472616E73666572206661696C65640000000000000000000000000000000000 PUSH1 0x0 DUP3 ADD MSTORE POP JUMP JUMPDEST PUSH2 0x4EE DUP2 PUSH2 0x474 JUMP JUMPDEST DUP2 EQ PUSH2 0x4F9 JUMPI PUSH1 0x0 DUP1 REVERT JUMPDEST POP JUMP JUMPDEST PUSH2 0x505 DUP2 PUSH2 0x486 JUMP JUMPDEST DUP2 EQ PUSH2 0x510 JUMPI PUSH1 0x0 DUP1 REVERT JUMPDEST POP JUMP JUMPDEST PUSH2 0x51C DUP2 PUSH2 0x4B2 JUMP JUMPDEST DUP2 EQ PUSH2 0x527 JUMPI PUSH1 0x0 DUP1 REVERT JUMPDEST POP JUMP INVALID LOG2 PUSH5 0x6970667358 0x22 SLT KECCAK256 PUSH3 0x4D0D34 0xBD PUSH8 0xFFC202D3B1718A7 SDIV 0xC3 0xBA CALLDATALOAD 0x25 0x4A PUSH2 0xDFD3 POP 0xD8 MSTORE CALLVALUE JUMPI COINBASE 0xC7 DUP6 0xCE PUSH5 0x736F6C6343 STOP ADDMOD ADD STOP CALLER "},"methodIdentifiers":{"getTrustedForwarder()":"ce1b815f","isTrustedForwarder(address)":"572b6c05","tokenAddress()":"9d76ea58","transferTokens(address,uint256)":"bec3fa17"}}}}}