{
  "_format": "hh-sol-artifact-1",
  "contractName": "TokenTransfer",
  "sourceName": "contracts/TransferGSN.sol",
  "abi": [
    {
      "inputs": [],
      "stateMutability": "nonpayable",
      "type": "constructor"
    },
    {
      "inputs": [],
      "name": "getTrustedForwarder",
      "outputs": [
        {
          "internalType": "address",
          "name": "forwarder",
          "type": "address"
        }
      ],
      "stateMutability": "view",
      "type": "function"
    },
    {
      "inputs": [
        {
          "internalType": "address",
          "name": "forwarder",
          "type": "address"
        }
      ],
      "name": "isTrustedForwarder",
      "outputs": [
        {
          "internalType": "bool",
          "name": "",
          "type": "bool"
        }
      ],
      "stateMutability": "view",
      "type": "function"
    },
    {
      "inputs": [],
      "name": "tokenAddress",
      "outputs": [
        {
          "internalType": "address",
          "name": "",
          "type": "address"
        }
      ],
      "stateMutability": "view",
      "type": "function"
    },
    {
      "inputs": [
        {
          "internalType": "address",
          "name": "_to",
          "type": "address"
        },
        {
          "internalType": "uint256",
          "name": "_amount",
          "type": "uint256"
        }
      ],
      "name": "transferTokens",
      "outputs": [],
      "stateMutability": "nonpayable",
      "type": "function"
    }
  ],
  "bytecode": "0x608060405234801561001057600080fd5b50732f3a40a3db8a7e3d09b0adfefbce4f6f81927557600160006101000a81548173ffffffffffffffffffffffffffffffffffffffff021916908373ffffffffffffffffffffffffffffffffffffffff160217905550610560806100756000396000f3fe608060405234801561001057600080fd5b506004361061004c5760003560e01c8063572b6c05146100515780639d76ea5814610081578063bec3fa171461009f578063ce1b815f146100bb575b600080fd5b61006b600480360381019061006691906102f8565b6100d9565b6040516100789190610428565b60405180910390f35b610089610132565b60405161009691906103d6565b60405180910390f35b6100b960048036038101906100b49190610321565b610158565b005b6100c3610259565b6040516100d091906103d6565b60405180910390f35b60008060009054906101000a900473ffffffffffffffffffffffffffffffffffffffff1673ffffffffffffffffffffffffffffffffffffffff168273ffffffffffffffffffffffffffffffffffffffff16149050919050565b600160009054906101000a900473ffffffffffffffffffffffffffffffffffffffff1681565b6000600160009054906101000a900473ffffffffffffffffffffffffffffffffffffffff1690508073ffffffffffffffffffffffffffffffffffffffff166323b872dd6101a3610282565b85856040518463ffffffff1660e01b81526004016101c3939291906103f1565b602060405180830381600087803b1580156101dd57600080fd5b505af11580156101f1573d6000803e3d6000fd5b505050506040513d601f19601f82011682018060405250810190610215919061035d565b610254576040517f08c379a000000000000000000000000000000000000000000000000000000000815260040161024b90610443565b60405180910390fd5b505050565b60008060009054906101000a900473ffffffffffffffffffffffffffffffffffffffff16905090565b6000601460003690501015801561029e575061029d336100d9565b5b156102b257601436033560601c90506102b6565b3390505b90565b6000813590506102c8816104e5565b92915050565b6000815190506102dd816104fc565b92915050565b6000813590506102f281610513565b92915050565b60006020828403121561030a57600080fd5b6000610318848285016102b9565b91505092915050565b6000806040838503121561033457600080fd5b6000610342858286016102b9565b9250506020610353858286016102e3565b9150509250929050565b60006020828403121561036f57600080fd5b600061037d848285016102ce565b91505092915050565b61038f81610474565b82525050565b61039e81610486565b82525050565b60006103b1600f83610463565b91506103bc826104bc565b602082019050919050565b6103d0816104b2565b82525050565b60006020820190506103eb6000830184610386565b92915050565b60006060820190506104066000830186610386565b6104136020830185610386565b61042060408301846103c7565b949350505050565b600060208201905061043d6000830184610395565b92915050565b6000602082019050818103600083015261045c816103a4565b9050919050565b600082825260208201905092915050565b600061047f82610492565b9050919050565b60008115159050919050565b600073ffffffffffffffffffffffffffffffffffffffff82169050919050565b6000819050919050565b7f5472616e73666572206661696c65640000000000000000000000000000000000600082015250565b6104ee81610474565b81146104f957600080fd5b50565b61050581610486565b811461051057600080fd5b50565b61051c816104b2565b811461052757600080fd5b5056fea2646970667358221220624d0d34bd670ffc202d3b1718a705c3ba35254a61dfd350d852345741c785ce64736f6c63430008010033",
  "linkReferences": {},
  "deployedLinkReferences": {}
}